{
  "contractName": "Lottery",
  "abi": [
    {
      "inputs": [],
      "stateMutability": "nonpayable",
      "type": "constructor"
    },
    {
      "inputs": [],
      "name": "manager",
      "outputs": [
        {
          "internalType": "address",
          "name": "",
          "type": "address"
        }
      ],
      "stateMutability": "view",
      "type": "function",
      "constant": true
    },
    {
      "inputs": [
        {
          "internalType": "uint256",
          "name": "",
          "type": "uint256"
        }
      ],
      "name": "players",
      "outputs": [
        {
          "internalType": "address payable",
          "name": "",
          "type": "address"
        }
      ],
      "stateMutability": "view",
      "type": "function",
      "constant": true
    },
    {
      "inputs": [],
      "name": "winner",
      "outputs": [
        {
          "internalType": "address payable",
          "name": "",
          "type": "address"
        }
      ],
      "stateMutability": "view",
      "type": "function",
      "constant": true
    },
    {
      "stateMutability": "payable",
      "type": "receive",
      "payable": true
    },
    {
      "inputs": [],
      "name": "pickWinner",
      "outputs": [],
      "stateMutability": "nonpayable",
      "type": "function"
    },
    {
      "inputs": [],
      "name": "allPlayers",
      "outputs": [
        {
          "internalType": "address payable[]",
          "name": "",
          "type": "address[]"
        }
      ],
      "stateMutability": "view",
      "type": "function",
      "constant": true
    }
  ],
  "bytecode": "0x608060405234801561001057600080fd5b50336000806101000a81548173ffffffffffffffffffffffffffffffffffffffff021916908373ffffffffffffffffffffffffffffffffffffffff160217905550610a53806100606000396000f3fe60806040526004361061004e5760003560e01c8063481c6a75146101055780635d495aea14610130578063b0ec809414610147578063dfbf53ae14610172578063f71d96cb1461019d57610100565b3661010057662386f26fc10000341461009c576040517f08c379a000000000000000000000000000000000000000000000000000000000815260040161009390610629565b60405180910390fd5b6001339080600181540180825580915050600190039060005260206000200160009091909190916101000a81548173ffffffffffffffffffffffffffffffffffffffff021916908373ffffffffffffffffffffffffffffffffffffffff1602179055005b600080fd5b34801561011157600080fd5b5061011a6101da565b604051610127919061068a565b60405180910390f35b34801561013c57600080fd5b506101456101fe565b005b34801561015357600080fd5b5061015c6103d2565b6040516101699190610775565b60405180910390f35b34801561017e57600080fd5b50610187610460565b60405161019491906107a6565b60405180910390f35b3480156101a957600080fd5b506101c460048036038101906101bf91906107fc565b610486565b6040516101d191906107a6565b60405180910390f35b60008054906101000a900473ffffffffffffffffffffffffffffffffffffffff1681565b60008054906101000a900473ffffffffffffffffffffffffffffffffffffffff1673ffffffffffffffffffffffffffffffffffffffff163373ffffffffffffffffffffffffffffffffffffffff161461028c576040517f08c379a000000000000000000000000000000000000000000000000000000000815260040161028390610875565b60405180910390fd5b600260018054905010156102d5576040517f08c379a00000000000000000000000000000000000000000000000000000000081526004016102cc906108e1565b60405180910390fd5b600180805490506102e46104c5565b6102ee9190610930565b815481106102ff576102fe610961565b5b9060005260206000200160009054906101000a900473ffffffffffffffffffffffffffffffffffffffff1673ffffffffffffffffffffffffffffffffffffffff166108fc479081150290604051600060405180830381858888f1935050505015801561036f573d6000803e3d6000fd5b50600067ffffffffffffffff81111561038b5761038a610990565b5b6040519080825280602002602001820160405280156103b95781602001602082028036833780820191505090505b50600190805190602001906103cf9291906104ff565b50565b6060600180548060200260200160405190810160405280929190818152602001828054801561045657602002820191906000526020600020905b8160009054906101000a900473ffffffffffffffffffffffffffffffffffffffff1673ffffffffffffffffffffffffffffffffffffffff168152602001906001019080831161040c575b5050505050905090565b600260009054906101000a900473ffffffffffffffffffffffffffffffffffffffff1681565b6001818154811061049657600080fd5b906000526020600020016000915054906101000a900473ffffffffffffffffffffffffffffffffffffffff1681565b600044426001805490506040516020016104e1939291906109e0565b6040516020818303038152906040528051906020012060001c905090565b828054828255906000526020600020908101928215610578579160200282015b828111156105775782518260006101000a81548173ffffffffffffffffffffffffffffffffffffffff021916908373ffffffffffffffffffffffffffffffffffffffff1602179055509160200191906001019061051f565b5b5090506105859190610589565b5090565b5b808211156105a257600081600090555060010161058a565b5090565b600082825260208201905092915050565b7f506c656173652070617920302e303120457468657220666f72206a6f696e696e60008201527f67206c6f74746572792100000000000000000000000000000000000000000000602082015250565b6000610613602a836105a6565b915061061e826105b7565b604082019050919050565b6000602082019050818103600083015261064281610606565b9050919050565b600073ffffffffffffffffffffffffffffffffffffffff82169050919050565b600061067482610649565b9050919050565b61068481610669565b82525050565b600060208201905061069f600083018461067b565b92915050565b600081519050919050565b600082825260208201905092915050565b6000819050602082019050919050565b60006106dc82610649565b9050919050565b6106ec816106d1565b82525050565b60006106fe83836106e3565b60208301905092915050565b6000602082019050919050565b6000610722826106a5565b61072c81856106b0565b9350610737836106c1565b8060005b8381101561076857815161074f88826106f2565b975061075a8361070a565b92505060018101905061073b565b5085935050505092915050565b6000602082019050818103600083015261078f8184610717565b905092915050565b6107a0816106d1565b82525050565b60006020820190506107bb6000830184610797565b92915050565b600080fd5b6000819050919050565b6107d9816107c6565b81146107e457600080fd5b50565b6000813590506107f6816107d0565b92915050565b600060208284031215610812576108116107c1565b5b6000610820848285016107e7565b91505092915050565b7f596f752063616e206e6f74206163636573730000000000000000000000000000600082015250565b600061085f6012836105a6565b915061086a82610829565b602082019050919050565b6000602082019050818103600083015261088e81610852565b9050919050565b7f506c617965727320617265206c657373207468616e2032000000000000000000600082015250565b60006108cb6017836105a6565b91506108d682610895565b602082019050919050565b600060208201905081810360008301526108fa816108be565b9050919050565b7f4e487b7100000000000000000000000000000000000000000000000000000000600052601260045260246000fd5b600061093b826107c6565b9150610946836107c6565b92508261095657610955610901565b5b828206905092915050565b7f4e487b7100000000000000000000000000000000000000000000000000000000600052603260045260246000fd5b7f4e487b7100000000000000000000000000000000000000000000000000000000600052604160045260246000fd5b6000819050919050565b6109da6109d5826107c6565b6109bf565b82525050565b60006109ec82866109c9565b6020820191506109fc82856109c9565b602082019150610a0c82846109c9565b60208201915081905094935050505056fea264697066735822122072d1c508ebde7711a6683e890f89441e5bbffde7dd7225d1f5b33c2c8c693cc764736f6c63430008110033",
  "immutableReferences": {},
  "source": "// SPDX-License-Identifier: MIT\r\n\r\npragma solidity ^0.8.0;\r\n\r\ncontract Lottery {\r\n    address public manager;\r\n    address payable[] public players;\r\n    address payable public winner;\r\n\r\n    receive() external payable {\r\n        require(\r\n            msg.value == 0.01 ether,\r\n            \"Please pay 0.01 Ether for joining lottery!\"\r\n        );\r\n        players.push(payable(msg.sender));\r\n    }\r\n\r\n    constructor() {\r\n        manager = msg.sender;\r\n    }\r\n\r\n    function random() private view returns (uint256) {\r\n        return\r\n            uint256(\r\n                keccak256(\r\n                    abi.encodePacked(\r\n                        block.difficulty,\r\n                        block.timestamp,\r\n                        players.length\r\n                    )\r\n                )\r\n            );\r\n    }\r\n\r\n    function pickWinner() public {\r\n        require(msg.sender == manager, \"You can not access\");\r\n        require(players.length >= 2, \"Players are less than 2\");\r\n        players[random() % players.length].transfer(address(this).balance);\r\n        players = new address payable[](0);\r\n    }\r\n\r\n    function allPlayers() public view returns (address payable[] memory) {\r\n        return players;\r\n    }\r\n}\r\n// 0x4D61aD764c2f45021C7f5DE4984cEE7fb069786F first\r\n// 0x604Ed889ad0C30ecA05a246226F10031A53ED597 second\r\n// 0x846602575cf14156458b121969a50c1187b20e85 third\r\n// 0xE1954f24DD64514852416BcCdA0e785a1983c427 four",
  "sourcePath": "E:\\Code Playground\\Coding and Programming Playground\\Blockchain Playground\\Dapps\\Lottery Dapp\\contracts\\Lottery.sol",
  "compiler": {
    "name": "solc",
    "version": "0.8.17+commit.8df45f5f.Emscripten.clang"
  },
  "schemaVersion": "3.4.10",
  "updatedAt": "2022-10-31T10:19:40.550Z",
  "networkType": "ethereum",
  "devdoc": {
    "kind": "dev",
    "methods": {},
    "version": 1
  },
  "userdoc": {
    "kind": "user",
    "methods": {},
    "version": 1
  }
}